:020000040800F2
:10000000F0170020F9010008351700085116000804
:1000100031170008B5020008BD1C000800000000F0
:100020000000000000000000000000009D1B000810
:10003000250300080000000039170008A11B000874
:10004000130200081302000813020008130200083C
:10005000130200081302000813020008130200082C
:10006000130200081302000813020008130200081C
:10007000130200081302000813020008130200080C
:1000800013020008130200081302000813020008FC
:1000900013020008130200081302000813020008EC
:1000A00013020008130200081302000813020008DC
:1000B00013020008130200081302000813020008CC
:1000C00013020008130200081302000813020008BC
:1000D00013020008130200081302000813020008AC
:1000E000130200081302000813020008130200089C
:1000F000130200081302000813020008130200088C
:10010000130200081302000813020008130200087B
:10011000130200081302000813020008130200086B
:100120001302000813020008190300081302000854
:1001300000F002F800F050F814A696E8000CB24463
:10014000B344DA4501D100F047F8BAE80F000FA632
:1001500096E83000A5EB040504EB0607AAEB0704BC
:10016000A7F101074FEA15154FEA3414A4F1010471
:10017000AC4201D300F030F813F0010F18BFFB1AA6
:1001800043F0010300F001F8DBE71847786E000048
:10019000986E0000103A24BF78C878C1FAD8520788
:1001A00024BF30C830C144BF04680C6070470000F1
:1001B000704700000023002400250026103A28BFC5
:1001C00078C1FBD8520728BF30C148BF0B607047C9
:1001D0001FB51FBD10B510BD00F031F81146FFF777
:1001E000F7FF04F0B3FE00F04FF803B4FFF7F2FF9F
:1001F00003BC00F057F80000094880470948004751
:10020000FEE7FEE7FEE7FEE7FEE7FEE7FEE7FEE7C6
:10021000FEE7FEE704480549054A064B7047000023
:10022000D11B000831010008F0110020F017002058
:10023000F0130020F0130020704770477047754698
:1002400000F02CF8AE4605006946534620F0070042
:10025000854618B020B5FFF7DDFFBDE820404FF020
:1002600000064FF000074FF000084FF0000BAC46BF
:10027000ACE8C009ACE8C009ACE8C009ACE8C0090A
:1002800021F007018D46704710B50446AFF300809A
:100290002046BDE81040FFF7A8BF000000487047A7
:1002A0001800002001491820ABBEFEE7260002001E
:1002B00070470000FEE7000010B5446A204600F0D9
:1002C0006FF80120207110BD10B5446A204600F07F
:1002D00031F80120207110BD10B5446A206940F04A
:1002E00004002061204600F05FF80120207110BD5D
:1002F00010B5446A206940F004002061204600F0F7
:100300001DF80120207110BD406A00F04BB80000BC
:10031000406A00F011B8000040F29840C2F20000BC
:1003200000F01CB970470000EFF3108072B600BFF8
:10033000FEE70000704700007047000070470000B3
:1003400000284FF0010318BF002901D1184670475B
:100350004379012B4FF00203F8D010B50371036805
:1003600002F0100ED3F800C012C940F6FE7202FA75
:100370000EF221432CEA020201FA0EF11143196038
:10038000C0211A6801FA0EF122EA01011960012167
:10039000002301714371BDE810401846704700000A
:1003A000704700007047000070470000002804BF3D
:1003B0000120704710B50446007920B90020607113
:1003C000204600F007F80220207100200121206162
:1003D000217110BDF0B585B0044647F20040216898
:1003E000C4F20000002681420496039602D005B0B4
:1003F000F0BD00BF41F21801C4F202014A681027A3
:1004000042F000524A604A6800F5144002F000527F
:100410000092009A0A6842F004020A60096801F03A
:100420000401009100990321029101A9019700F0B4
:1004300091FA40F2984540F23040C2F20005C4F211
:1004400002004FF40072C5E9000705F11000802199
:100450004FF400634FF0200C80E80C102846C5E9EB
:100460000261EE6100F0C2F9002818BFFFF75CFFDF
:10047000A5606C6205B0F0BD002804BF0120704784
:10048000F0B581B00446407901284FF0020062D0F7
:100490000D46DDF818C001216171207105B3E068D7
:1004A00040F2C92740F2113640F2F12E2168C0F621
:1004B0000007C0F60006C0F6000EC0E90A76C0F8D4
:1004C00030E00F68BCF1040F47F080570F6027D071
:1004D000BCF1000F14BF01F11C0C01F1140C25E05C
:1004E000A06840F2B92E40F2093640F2D9272168BF
:1004F000C0F6000EC0F60006C0F60007C0E90AE626
:1005000007630F68BCF1040F47F480570F600BD0EE
:10051000BCF1000F14BF01F1100C01F1080C05E053
:1005200001F1180C02E000BF01F10C0C114662460B
:1005300000F0ACF90021617120B104F11001042236
:1005400006E000BF05F010020123216803FA02F261
:100550000B681A430A6001B0F0BD000010B5D0E985
:100560000FE3D0F800C0DEF80020DCF80010DA401D
:1005700054072DD511F004042AD0DCF800108906A8
:1005800005D4DCF8001021F00401CCF8001004229E
:10059000C4F2020202F17C018C454BD940F20841C1
:1005A000C4F202018C4500F0AF8040F21C41C4F25D
:1005B00002018C4500F0AC8040F23041C4F20201EF
:1005C0008C4540F0A9804FF48061C2F80014F3E03C
:1005D000940745D511F0020442D0DCF800108906DA
:1005E00008D4DCF8001021F00A01CCF80010012139
:1005F00080F821100422C4F2020202F17C018C4531
:100600004CD940F20841C4F202018C4500F0B4809C
:1006100040F21C41C4F202018C4500F0AF8040F270
:100620003041C4F202018C4540F0AA804FF40071C1
:10063000AEE000BF4321C4F202018C4544DD6B21D2
:10064000C4F202018C4551DC4421C4F202018C4504
:1006500000F0A2805821C4F202018C4568E000BF7E
:10066000120740F1C18011F0080108BF10BDDCF88D
:10067000001021F00E01CCF80010012101FA03F264
:10068000CEF80420816380F82110016B002200293C
:1006900080F8202040F09280A6E000BF4321C4F201
:1006A00002018C4548DD6B21C4F202018C4555DC0A
:1006B0004421C4F202018C4500F084805821C4F228
:1006C00002018C4572E000BF0821C4F202018C4592
:1006D00066D01C21C4F202018C456BD03021C4F2DB
:1006E00002018C4524D14FF4806164E06C21C4F296
:1006F00002018C4556D08021C4F202018C4517D1ED
:100700004FF0806157E000BF0421C2F8001453E0AD
:100710004021C2F800144FE002F588634FF48021B5
:100720009C4508BF4FF48041C2F8001444E000BF6C
:100730004FF480213FE000BF0821C4F202018C4544
:1007400044D01C21C4F202018C4545D03021C4F2B2
:1007500002018C452AD14FF400713EE06C21C4F2B5
:1007600002018C4534D08021C4F202018C451DD198
:100770004FF0007131E000BF022109E0202107E0C5
:1007800002F588634FF400319C4508BF4FF40051D7
:10079000C2F8001422E000BF4FF480410BE000BF1C
:1007A000042108E04FF4800105E000BF4FF4003160
:1007B00013E000BF40211160C16AA9B1BDE810403B
:1007C000084700BF4FF4005107E000BF022104E0DA
:1007D0004FF4001101E000BF20211160816A002266
:1007E000002980F82020E9D110BD00000146002832
:1007F0004FF0010008BF70472DE9F04740F2000CB0
:10080000C4F2020C0A684FF6F8330CF5816ECBF691
:10081000FD73724538BF03F5806303EB020E4CF69F
:10082000CD43CCF6CC43AEFB033E6FF003060CF594
:10083000806506EA9E06D1E901A9D1F80C803CBF8B
:100840000025C4F20205C1E90F56022681F8216095
:10085000166843F6F075AE4346EA0A06D1E9045736
:1008600046EA090646EA0806D1E906432E4337431D
:1008700027433B43136000228A6381F8210081F8FB
:1008800020200020BDE8F0477047000090F820C00D
:10089000BCF1010F04BF02207047F0B54FF0010E0C
:1008A00080F820E090F821C0BCF1010F26D14FF074
:1008B000020C80F821C04FF0000CC0F838C0D0E91D
:1008C00000C4C56AC66BDCF80070102C27F0010765
:1008D000CCF80070006C0EFA00F070600846CCF89E
:1008E000043004BF10460A46CCF80800CCF80C20AF
:1008F000DCF8000045B140F00E000DE0002180F86A
:1009000020100220F0BD00BF20F00400CCF8000051
:10091000DCF8000040F00A00CCF80000DCF8000031
:1009200040F00100CCF800000020F0BDB0B5044656
:1009300000F010F9054640F20000C2F20000007815
:10094000611C18BF044400BF00F004F9401BA04222
:10095000FAD3B0BD2DE9F04F82B00E68002E00F042
:10096000EF80A0F18042A2F58432870547EA922207
:1009700041F6004740F2004EC4F201070625C4F2DA
:10098000010EB84208BF052500244FF001080F23CF
:100990004FF0000A4FF0000B052A38BF15460095AE
:1009A00009E000BF0E680AF1010A36FA0AF204F102
:1009B000040400F0C58008FA0AFC16EA0C09F1D01C
:1009C0004E684FF6FF72C1F21002964212DC122EF0
:1009D00056D8DFE806F0350B454955555555555560
:1009E000555555555555554D510000BFD1F80CB0D2
:1009F00046E000BF4FF6FF72C1F2210296420FDCC3
:100A00000022C1F2110296421AD00022C1F2120253
:100A1000964215D00022C1F22102964210D02FE05A
:100A20000022C1F2220296420AD00022C1F2310213
:100A3000964205D00022C1F23202964220D100BF78
:100A40008A684AB1012A14BFC0F814C0C0F810C0A7
:100A50004FF0080B14E000BF4FF0040B10E000BF94
:100A6000CA6802F1080B0BE04FF0000B08E000BF72
:100A7000CA6802F1040B03E0CA6802F10C0B00BF64
:100A800022460646B9F5807F24BF203A04363768EF
:100A900003FA02F5AF430BFA02F23A433260CA7925
:100AA000D2067FF57FAF41F21807C4F202073A6819
:100AB0004FF6084342F001023A603A68CFF6FF73FE
:100AC00002F001020192019A2AF0030272440F25FA
:100AD000D75804F00C06B540AF43009D05FA06F662
:100AE0003743D7504E6840F20C45F202DEF808203A
:100AF00054BF22EA090242EA0902C4F20105CEF813
:100B000008202A68B70254BF22EA090242EA090211
:100B10002A60DEF80420B70354BF22EA090242EA41
:100B20000902CEF804200F23DEF80020F70354BF9B
:100B300022EA090242EA0902CEF8002032E700BFA9
:100B400002B0BDE8F08F0000002A08BF090401616F
:100B50007047000041F2EC10C2F2000000687047DC
:100B600040F2000041F2EC11C2F20000C2F20001BA
:100B700000780A68104408607047000080B542F2AF
:100B80000000C4F20200016841F01001016003207E
:100B900000F08CF80F2000F005F800F027F8002096
:100BA00080BD000070B540F20006C2F2000640F2BF
:100BB00008013278C2F200014FF47A730968B3FB7E
:100BC000F2F20446B1FBF2F1084600F061FB0F2C93
:100BD0004FF0010508D838B94FF0FF302146002208
:100BE000002500F037F87460284670BD82B041F2ED
:100BF0001800C4F202000168022241F00101016004
:100C0000016801F0010101910199416841F08051B1
:100C10004160406800F08050009000980420C4F2C9
:100C20000100016862F31A61016002B070470000C0
:100C3000002848BF704700F01F01012202FA01F1AD
:100C40001C2202EAD0004EF20012CEF200028150C5
:100C50007047000010B54EF60C5CCEF2000CDCF8CC
:100C60000030C3F3022E8EF00704042C28BF0424A6
:100C7000BEF103034FF0FF3E0EFA04F438BF002329
:100C8000A14399400EFA03F39A43114300F00F0277
:100C900000F160430901043A03F56443624400280B
:100CA00048BF02F10C03197010BD00004EF60C5144
:100CB000CEF200010A684FF6FF031A4060F30A22E1
:100CC00042F0806040F0FD7008607047002804BF6B
:100CD000012070472DE9F04381B042F20008C4F2D0
:100CE00002080446D8F800000D4600F007008842CC
:100CF0000CD2D8F8000020F007002843C8F8000004
:100D0000D8F8000000F00700A8426CD1206841F23A
:100D100004098107C4F2020917D5410705D5D9F89E
:100D2000001041F4E061C9F80010010705D5D9F8B9
:100D3000001041F46051C9F80010D9F80010A26801
:100D400021F0F0011143C9F80010C00742D1D8F8D2
:100D5000000000F00700A8420CD9D8F8000020F0ED
:100D600007002843C8F80000D8F8000000F007008A
:100D7000A84238D12068410707D5D9F80010E268A9
:100D800021F4E0611143C9F80010000708D5D9F833
:100D90000000216920F4605040EAC100C9F8000059
:100DA000D9F8002002F00C00082841F20020C0F21F
:100DB0007A0051D145F24E43C2F38341C0F600039D
:100DC000595CD2033CD440F60010C0F23D004843C9
:100DD00042E000BF606802280AD001282AD159F8F1
:100DE000041C890308D4012001B0BDE8F08300BFD2
:100DF00059F8041C8901F6D5D9F8001021F0030137
:100E00000843C9F80000FFF7A5FE064641F28837FF
:100E1000D9F80000616800F00C00B0EB810F96D0AB
:100E2000FFF798FE801BB842F2D9032001B0BDE85D
:100E3000F08300BF59F8041C8907D4D5DCE700BF54
:100E4000D9F8002045F24C43C2F34042C0F60003FB
:100E50009A5C4843B0FBF2F0D9F8001045F23C42EE
:100E6000C1F30311C0F60002515C40F2080220FAFF
:100E700001F140F20400C2F200000068C2F2000278
:100E80001160FFF78FFE002001B0BDE8F083000085
:100E9000002804BF012070472DE9F04182B00446CC
:100EA000007841F20006C007C4F202060CD0706858
:100EB00000F00C00042840F081803068800303D5E6
:100EC0006068002800F04E81207880071BD570688C
:100ED00010F00C0F09D0706800F00C00082840F0EA
:100EE0008B807068C00300F187803068800703D56D
:100EF0002069012840F036813068616920F0F800EF
:100F000040EAC10030602078000713D42078400701
:100F10002CD4E569002D00F02081706800F00C00F1
:100F2000082840F0AF80012D40F00C81012002B074
:100F3000BDE8F081A069002800F08C800020C4F298
:100F400042200121C0F88014FFF704FE054600BFCF
:100F5000706A800700F1BA80FFF7FCFD401B022891
:100F6000F6D9032002B0BDE8F08100BFF0695FEA66
:100F7000C00808D4F06940F08050F061F06900F0DA
:100F800080500090009847F20007C4F200073868CC
:100F9000C0054DD4386840F480703860FFF7DAFD42
:100FA000054600BF3868C00542D4FFF7D3FD401B9B
:100FB0006428F7D9032002B0BDE8F081706800F022
:100FC0000C00082803D17068C0033FF576AF606855
:100FD000002800F00981B0F5A02F00F01D81B0F5C8
:100FE000803F00F01D81306820F480303060306830
:100FF00020F4802017E100BF2069002840F20000A3
:10100000C4F2422000F08C8001210160FFF7A2FDB4
:10101000054600BF306880073FF56EAFFFF79AFDC9
:10102000401B0228F6D9032002B0BDE8F08100BFC2
:10103000E068002800F09A80052800F0B1800128BF
:1010400000F0B280306A20F001003062306A20F097
:101050000400ACE00020C4F242200021C0F880145B
:10106000FFF778FD054600BF706A80077FF54EAF39
:10107000FFF770FD401B0228F6D9032002B0BDE83F
:10108000F08100BF0027C4F2422700203866FFF736
:1010900061FD022D05460DD13068800140F1D680FA
:1010A000FFF758FD401B02284FF00300F4D902B0AF
:1010B000BDE8F081306880014FD5FFF74BFD401B44
:1010C00002284FF00300F5D9F1E700BF40F2080015
:1010D000C2F20000006844F6D351C1F26201A0FBE5
:1010E0000101480A019000BF00BF0198411E00287D
:1010F00001913FF40BAF00BF0198411E0028019100
:101100003FF404AF00BF0198411E002801913FF455
:10111000FDAE00BF0198411E00280191E4D1F5E623
:1011200000210160FFF716FD054600BF306880070B
:101130007FF5E9AEFFF70EFD401B02284FF00300DC
:10114000F4D9B4E77068216A00F480328A4209D188
:10115000616A00F47010884204D1002002B0BDE83A
:10116000F08100BF012002B0BDE8F081306A20F0BC
:1011700001003062306A20F004003062FFF7EAFCC0
:10118000054641F2883700BF306A800722D5FFF755
:10119000E1FC401BB8424FF00300F5D987E700BFE0
:1011A000306A40F004003062306A40F00100306282
:1011B000FFF7D0FC054641F2883700BF306A800750
:1011C00008D4FFF7C7FC401BB842F7D9032002B090
:1011D000BDE8F081B8F1000F3FF59BAEF06920F05B
:1011E0008050F06195E600BF306820F480303060B8
:1011F000306820F480203060FFF7ACFC054600BF6B
:10120000306880037FF560AEFFF7A4FC401B6428C4
:101210004FF00300F4D94AE7306840F48020306092
:10122000306840F480303060FFF794FC054600BF22
:10123000306880033FF548AEFFF78CFC401B642804
:10124000F6D9032002B0BDE8F08100BF206AB0F5F6
:10125000803F05D17168A26821F4003111437160AB
:101260007168626A21F474111143084370600120AF
:101270003866FFF76FFC0446306880013FF56DAFBC
:10128000FFF768FC001B02284FF00300F4D90EE7BB
:10129000411E0020B0EB116F1CBF012070474EF2C1
:1012A0001002CEF2000251604EF62351CEF2000140
:1012B000F0230B70072190601160704790F83C207C
:1012C000012A4FF0020242D010B580F83D2002689A
:1012D000D2F804E0D2F808C00C682EF07003234363
:1012E00040F6FF34C4F20004A242536010DCB2F1B5
:1012F000804F1FD040F20043C4F200039A4219D03D
:1013000040F60003C4F200039A4213D017E000BF76
:1013100040F60043C4F200039A420BD043F200436C
:10132000C4F201039A4205D042F60043C4F201031D
:101330009A4204D149682CF080031943916001213D
:10134000002280F83D1080F83C20BDE81040104697
:1013500070470000002804BF0120704710B5044604
:1013600090F83D0028B9002084F83C00204600F0A9
:101370001FF8022084F83D002068211D00F02AFC9F
:10138000012084F8460084F83E0084F83F0084F889
:10139000400084F8410084F8420084F8430084F857
:1013A000440084F8450084F83D00002010BD000092
:1013B00083B0006841F20001C4F20001884217D0F6
:1013C00040F60001C4F20001884221D0B0F1804F04
:1013D0001BD141F21C00C4F20200016841F001017E
:1013E0000160006800F001000290029803B07047AD
:1013F00041F21C00C4F20200016841F010010160DA
:10140000006800F010000090009803B0704700BF23
:1014100041F21C00C4F20200016841F004010160C5
:10142000006800F004000190019803B070470000CC
:1014300090F83D1001291CBF01207047022180F85F
:101440003D10006840F6FF31C4F2000188420FDC15
:10145000B0F1804F1ED040F20041C4F2000188423A
:1014600018D040F60001C4F20001884212D018E002
:1014700040F60041C4F2000188420BD043F2004123
:10148000C4F20101884205D042F60041C4F20101D4
:10149000884206D1816801F00701062904BF0020B7
:1014A0007047016841F001010160002070470000B1
:1014B00090F83C20012A4FF0020200F0C58080B570
:1014C00080F83D20D0F800C04FF67772DCF8083085
:1014D00023EA0202CCF808200B684F2B28DC1F2BD4
:1014E00044DD202B45D0302B43D0402B40F0AE8044
:1014F000D1F804E0C968DCF82030DCF8202022F0C4
:101500000102CCF82020DCF8182022F0F00242EA98
:10151000011123F00A0242EA0E02CCF81810CCF8AE
:101520002020DCF8081041F0470121F0300180E074
:101530006F2B27DDB3F5005F48D0B3F5805F7AD01D
:10154000702B40F08380D1E901E3C968DCF8082002
:1015500043EA0E0322F47F4243EA01211143CCF80F
:101560000810DCF8081041F0770162E00BB1102B95
:101570006CD1DCF8081021F07001194341F007012B
:1015800057E000BF502B35D0602B5FD1D1F804E07D
:10159000C968DCF82030DCF8202022F01002CCF8FA
:1015A0002020DCF8182022F4704242EA013123F0B6
:1015B000A00242EA0E12CCF81810CCF82020DCF879
:1015C000081041F0670121F0100132E0D1E901E398
:1015D000C968DCF8082043EA0E0322F47F4243EA9C
:1015E00001211143CCF80810DCF8081041F48041C7
:1015F0001FE000BFD1F804E0C968DCF82030DCF857
:10160000202022F00102CCF82020DCF8182022F063
:10161000F00242EA011123F00A0242EA0E02CCF87B
:101620001810CCF82020DCF8081041F0570121F008
:101630002001CCF808100022012180F83D10002183
:1016400080F83C10BDE88040104670470122F3E767
:10165000FEE70000B0B5032888BFB0BDDFE800F0AA
:10166000024C304241F20004C4F2010404F58060EF
:1016700004210022FFF768FA20464FF400510022AF
:10168000FFF762FAA4F58065284620210122FFF7C2
:101690005BFA284610210122FFF756FA4FF48060CA
:1016A00020614FF61000CFF6FF704FF4004121503B
:1016B0004FF4805121504FF400612150B0BD00BF64
:1016C00041F20004C4F2010404F580600421012207
:1016D000FFF73AFA20464FF400510022BDE8B0402F
:1016E000FFF732BA41F20004C4F2010404F580604D
:1016F0000421012208E000BF41F20004C4F2010409
:1017000004F5806004210022FFF71EFA20464FF402
:1017100000510122BDE8B040FFF716BA024640F67C
:101720000040C4F201004FF40051FFF70DBA000071
:10173000FEE70000FEE700007047000070B540F6CD
:101740001040C4F201004FF0804C4FF000464FF0C3
:1017500000724FF48073C0F800C4C0F800640260E7
:1017600003604FF0807100BF0160026003604FF4BE
:10177000007500BF01600560036000BF0160056087
:10178000036000BF01600260036000BF016002608F
:10179000036000BF01600260036000BF016002607F
:1017A00003604FF4804E00BF0160C0F800E4C0F851
:1017B00000C4C0F800640560036000BF01600560FC
:1017C000036000BF01600560036000BF0160056049
:1017D000036000BF01600260036000BF016002603F
:1017E000036000BF01600260036000BF016002602F
:1017F00003604FF4004400BF0160C0F800E4C0F88B
:1018000000C4C0F800440260036000BF01600260D1
:10181000036000BF01600260036000BF01600560FB
:10182000036000BF01600260036000BF01600260EE
:10183000036000BF01600260036000BF01600260DE
:10184000036000BF0160C0F800E4C0F800C4C0F845
:1018500000640260036000BF01600260036000BFBB
:1018600001600260036000BF01600560036000BFAB
:1018700001600260036000BF01600560036000BF9B
:1018800001600260036000BF01600560036000BF8B
:101890000160C0F800E4C0F800C4C0F80044026071
:1018A000036000BF01600260036000BF016002606E
:1018B000036000BF01600260036000BF016002605E
:1018C000036000BF01600260036000BF016002604E
:1018D000036000BF01600260036000BF0160C0F8E8
:1018E00000E4C0F800C4C0F800440560036000BF15
:1018F00001600260036000BF01600260036000BF1E
:1019000001600560036000BF01600560036000BF07
:1019100001600560036000BF01600560036000BFF7
:1019200001600560036000BF0160C0F800E4C0F81A
:1019300000C4C0F800640260036000BF016005607D
:10194000036000BF01600560036000BF01600560C7
:10195000036000BF01600260036000BF01600560BA
:10196000036000BF01600260036000BF01600560AA
:10197000036000BF0160C0F800E4C0F800C4C0F814
:1019800000440260036000BF01600260036000BFAA
:1019900001600260036000BF01600260036000BF7D
:1019A00001600260036000BF01600260036000BF6D
:1019B00001600260036000BF01600260036000BF5D
:1019C0000160C0F800E4C0F800C4C0F80044026040
:1019D000036000BF01600260036000BF016005603A
:1019E000036000BF01600260036000BF016002602D
:1019F000036000BF01600560036000BF0160056017
:101A0000036000BF01600560036000BF0160C0F8B3
:101A100000E4C0F800C4C0F800640260036000BFC6
:101A200001600560036000BF01600260036000BFE9
:101A300001600560036000BF01600560036000BFD6
:101A400001600560036000BF01600260036000BFC9
:101A50000160026003604FF4486500BF0160C0F898
:101A600000E400BFC0F800C4C0F800440260036096
:101A700000BF01600260036000BF0160026003609C
:101A800000BF01600260036000BF0160026003608C
:101A900000BF01600260036000BF0160026003607C
:101AA00000BF01600260036000BF0160C0F800E495
:101AB000C0F800C4C0F800440260036000BF0160C9
:101AC0000260036000BF01600260036000BF01604C
:101AD0000260036000BF01600260036000BF01603C
:101AE0000260036000BF01600260036000BF01602C
:101AF0000260036000BF0160C0F800E4C0F800C4E9
:101B0000C0F800440260036000BF0160026003602F
:101B100000BF01600260036000BF016002600360FB
:101B200000BF01600260036000BF016002600360EB
:101B300000BF01600260036000BF016002600360DB
:101B400000BF0160C0F800E4C0F800C4C0F8004461
:101B50000260036000BF01600260036000BF0160BB
:101B60000260036000BF01600260036000BF0160AB
:101B70000260036000BF01600260036000BF01609B
:101B80000260036000BF016002600360043D00BFAB
:101B90000160C0F800E47FF465AF70BD70470000DD
:101BA00010B5FEF7DDFF40F2D404C2F20004207845
:101BB000FFF7B4FD6088013081B2B1F57A7F6080B3
:101BC00098BF10BD217800206080C843207010BDF0
:101BD0007047000010B540F6FF3E0368C4F2000EE7
:101BE00043F2004C7045C4F2010C21DCB0F1804F8F
:101BF0002CD040F20042C4F20002904226D040F6BF
:101C00000002C4F20002904220D0704524DCB0F102
:101C1000804F2FD040F20042C4F20002904229D0FF
:101C200040F60002C4F20002904223D026E000BF3A
:101C300040F60042C4F20002904207D0604505D051
:101C400042F60042C4F201029042DED14A6823F01B
:101C5000700313437045DADD40F60042C4F200021F
:101C6000904207D0604505D042F60042C4F201021E
:101C7000904203D1CA6823F44073134323F08002D7
:101C80004B69D1F800E08C681A4360450260C46279
:101C9000C0F828E005D042F60042C4F201029042AA
:101CA00001D109690163012141610169C90708BFC7
:101CB00010BD016921F00101016110BDFEE70000C6
:101CC000012AB8BF7047F0B5A1F10A0C00234FF00C
:101CD0000C0E00BFC55CC418AE070EEAE67665F3CD
:101CE000000665F34106AF0867F3041667F346166E
:101CF000EF0867F3C8162F0967F34926AF0648BFF8
:101D000046F440666D0648BF46F440562CF80A6F0C
:101D10006578AE070EEAE67665F3000665F34106E0
:101D2000AF0867F3041667F34616EF0867F3C816A3
:101D30002F0967F34926AF0648BF46F440666D0693
:101D400001EB430548BF46F440566E80A578053345
:101D5000AE070EEAE67665F3000665F34106AF08C6
:101D600067F3041667F34616EF0867F3C8162F09E2
:101D700067F34926AF0648BF46F440666D0648BF84
:101D800046F44056ACF80460E578AE070EEAE67615
:101D900065F3000665F34106AF0867F3041667F3C1
:101DA0004616EF0867F3C8162F0967F34926AF06F2
:101DB00048BF46F440666D0648BF46F44056ACF84E
:101DC00006602479A5070EEAE57564F3000564F35F
:101DD0004105A60866F3041566F34615E60866F3A2
:101DE000C815260966F34925A60648BF45F440658F
:101DF000640648BF45F44055013AACF808507FF4FA
:101E000069AFBDE8F04070472DE9F04F81B00A9FFF
:101E100040F6104C0F44013FBEB2C4F2010C07EB78
:101E2000963B4FF080494FF000474FF0007E4FF453
:101E300080740093CCF80094CCF80074CCF800E0E7
:101E4000CCF800404FF0807500BFCCF80050CCF8C3
:101E500000E0CCF800404FF4007600BFCCF8005012
:101E6000CCF80060CCF8004000BFCCF80050CCF8B3
:101E70000060CCF8004000BFCCF80050CCF800E087
:101E8000CCF8004000BFCCF80050CCF800E0CCF813
:101E9000004000BFCCF80050CCF800E0CCF8004087
:101EA00000BFCCF80050CCF800E0CCF800404FF474
:101EB000804800BFCCF80050CCF80084CCF80094E7
:101EC000CCF80074CCF80060CCF8004000BFCCF82F
:101ED0000050CCF80060CCF8004000BFCCF80050B7
:101EE000CCF80060CCF8004000BFCCF80050CCF833
:101EF0000060CCF8004000BFCCF80050CCF800E007
:101F0000CCF8004000BFCCF80050CCF800E0CCF892
:101F100000404BB200BFCCF80050CCF800E0CCF849
:101F2000004000BFCCF80050CCF800E0CCF80040F6
:101F3000B3F1FF3F4FF4004300BFCCF80050CCF8A2
:101F40000084CCF80094CCF80034CCF800E0CCF855
:101F5000004000BFCCF80050CCF800E0CCF80040C6
:101F600000BFCCF80050CCF800E0CCF8004000BF37
:101F7000CCF80050CCF80060CCF8004000BFCCF8A2
:101F80000050CCF800E0CCF8004000BFCCF8005086
:101F9000CCF800E0CCF8004000BFCCF80050CCF802
:101FA00000E0CCF8004000BFCCF80050CCF8006056
:101FB000CCF8004000BFCCF80050CCF80084CCF83E
:101FC0000094CCF80074CCF800E0CCF8004000BFDE
:101FD000CCF80050CCF80060CCF8004000BFCCF842
:101FE0000050CCF80060CCF8004000BFCCF80050A6
:101FF000CCF80060CCF8004000BFCCF80050CCF822
:1020000000E0CCF8004000BFCCF80050CCF80060F5
:10201000CCF8004000BFCCF80050CCF800E0CCF881
:10202000004000BFCCF80050CCF80060CCF8004075
:1020300000BFCCF80050CCF80084CCF80094CCF869
:102040000034CCF800E0CCF8004000BFCCF80050E1
:10205000CCF800E0CCF800404FF4007A00BFCCF898
:102060000050C8BF4FF0007A4F06CCF800A0CCF863
:1020700000404FF4007700BFCCF8005058BF4FF03D
:102080000077CCF800708F06CCF800404FF4007752
:1020900000BFCCF8005058BF4FF00077CCF800706C
:1020A000CF06CCF800404FF4007700BFCCF80050CA
:1020B00058BF4FF00077CCF800700F07CCF8004005
:1020C0004FF4007700BFCCF8005058BF4FF00077B6
:1020D0004907CCF80070CCF800404FF400714FEA8B
:1020E000AB0B00BFCCF8005058BF4FF00071CCF8DC
:1020F0000010CCF800405FEA4B6100BFCCF8005004
:10210000CCF80084CCF80094CCF80034CCF800E093
:10211000CCF800404FF4007100BFCCF8005058BF1D
:102120004FF00071CCF800105FEA8B61CCF80040F2
:102130004FF4007100BFCCF8005058BF4FF0007151
:10214000CCF800105FEACB61CCF800404FF400718E
:1021500000BFCCF8005058BF4FF00071CCF8001011
:102160005FEA0B71CCF800404FF4007100BFCCF86F
:10217000005058BF4FF00071CCF800105FEA4B716F
:10218000CCF800404FF4007100BFCCF8005058BFAD
:102190004FF00071CCF800105FEA8B71CCF8004072
:1021A0004FF4007100BFCCF8005058BF4FF00071E1
:1021B000CCF800105FEACB71CCF800404FF400710E
:1021C00000BFCCF8005008BF4FF00071CCF80010F1
:1021D000CCF800404FF0004A00BFCCF80050CCF8DB
:1021E0000084CCF80094CCF800A4CCF800E0CCF843
:1021F000004000BFCCF80050CCF800E0CCF8004024
:1022000000BFCCF80050CCF800E0CCF8004000BF94
:10221000CCF80050CCF80060CCF8004000BFCCF8FF
:102220000050CCF800E0CCF8004000BFCCF80050E3
:10223000CCF80060CCF8004041B200BFCCF80050B0
:10224000CCF800E0CCF8004000BFCCF80050CCF84F
:102250000060CCF80040B1F1FF3F4FF4007100BFC7
:10226000CCF80050CCF80084CCF80094CCF80034C2
:10227000C8BF4FF00071CCF800104106CCF8004008
:102280004FF4007100BFCCF8005058BF4FF0007100
:10229000CCF800108106CCF800404FF4007100BF6C
:1022A000CCF8005058BF4FF00071CCF80010C106B8
:1022B000CCF800404FF4007100BFCCF8005058BF7C
:1022C0004FF00071CCF800100107CCF800404FF43B
:1022D000007100BFCCF8005058BF4FF00071CCF82F
:1022E00000104107CCF800404FF4007100BFCCF85B
:1022F000005058BF4FF00071CCF800108107CCF8A7
:1023000000404FF4007100BFCCF8005058BF4FF0B0
:102310000071CCF80010C107CCF800404FF40071F8
:1023200000BFCCF8005008BF4FF00071CCF800108F
:102330000A99009F033138448908013801FB07FBE3
:1023400041B2CCF80040B1F1FF3F4FF4007100BF43
:10235000CCF80050CCF80084CCF80094CCF80034D1
:10236000C8BF4FF00071CCF800104106CCF8004017
:102370004FF4007100BFCCF8005058BF4FF000710F
:10238000CCF800108106CCF800404FF4007100BF7B
:10239000CCF8005058BF4FF00071CCF80010C106C7
:1023A000CCF800404FF4007100BFCCF8005058BF8B
:1023B0004FF00071CCF800100107CCF800404FF44A
:1023C000007100BFCCF8005058BF4FF00071CCF83E
:1023D00000104107CCF800404FF4007100BFCCF86A
:1023E000005058BF4FF00071CCF800108107CCF8B6
:1023F00000404FF4007100BFCCF8005058BF4FF0C0
:102400000071C007CCF80010CCF800404FF4007009
:1024100000BFCCF8005008BF4FF00070CCF80000AF
:10242000CCF8004000BFCCF80050CCF80084CCF8C9
:102430000094CCF800A4CCF800E0CCF8004000BF39
:10244000CCF80050CCF80060CCF8004000BFCCF8CD
:102450000050CCF800E0CCF8004000BFCCF80050B1
:10246000CCF80060CCF8004000BFCCF80050CCF8AD
:102470000060CCF8004000BFCCF80050CCF8006001
:10248000CCF8004000BFCCF80050CCF800E0CCF80D
:10249000004000BFCCF80050CCF800E0CCF8004081
:1024A000BBF1000F00BFCCF80050CCF8008400F066
:1024B0008081BBF1010F05D100205FEACB7140F0B4
:1024C000FE8076E12BF00100C0F1000E6FF00100FC
:1024D0004FF080484FF400494FF480754FF08074FE
:1024E0004FF48041131893F902704FF40076CCF842
:1024F0000084CCF80094B7F1FF3FC8BF4FF00076DE
:10250000CCF800607E06CCF800504FF4007600BF97
:10251000CCF8004058BF4FF00076CCF80060BE0603
:10252000CCF800504FF4007600BFCCF8004058BF04
:102530004FF00076CCF80060FE06CCF800504FF467
:10254000007600BFCCF8004058BF4FF00076CCF8C2
:1025500000603E07CCF800504FF4007600BFCCF886
:10256000004058BF4FF00076CCF800607E07CCF8F2
:1025700000504FF4007600BFCCF8004058BF4FF039
:102580000076CCF80060BE07CCF800504FF400761F
:1025900000BFCCF8004058BF4FF00076CCF8006088
:1025A000FE07CCF800504FF4007600BFCCF8004096
:1025B00008BF4FF00076CCF80060CCF8005000BFA8
:1025C000CCF80040CCF8001493F903304FF40076B7
:1025D000CCF80084CCF80094B3F1FF3FC8BF4FF0B3
:1025E0000076CCF800605E06CCF800504FF4007620
:1025F00000BFCCF8004058BF4FF00076CCF8006028
:102600009E06CCF800504FF4007600BFCCF8004096
:1026100058BF4FF00076CCF80060DE06CCF80050D2
:102620004FF4007600BFCCF8004058BF4FF0007662
:10263000CCF800601E07CCF800504FF4007600BFC5
:10264000CCF8004058BF4FF00076CCF800605E0731
:10265000CCF800504FF4007600BFCCF8004058BFD3
:102660004FF00076CCF800609E07CCF800504FF495
:10267000007600BFCCF8004058BF4FF00076DB0773
:10268000CCF80060CCF800504FF4007300BFCCF8D9
:10269000004008BF4FF000730230CCF800300EEB62
:1026A0000003CCF80050023300BFCCF80040CCF857
:1026B00000147FF417AF02305FEACB7179D0105667
:1026C0004FF08041CCF800144FF400414FF40072F9
:1026D000CCF80014B0F1FF3FC8BF4FF00072CCF847
:1026E00000204FF480724706CCF800204FF0807332
:1026F0004FF4007700BFCCF8003058BF4FF00077A0
:10270000CCF800708706CCF800204FF4007700BFAB
:10271000CCF8003058BF4FF00077CCF80070C706F7
:10272000CCF800204FF4007700BFCCF8003058BF41
:102730004FF00077CCF800700707CCF800204FF47A
:10274000007700BFCCF8003058BF4FF00077CCF8CE
:1027500000704707CCF800204FF4007700BFCCF89A
:10276000003058BF4FF00077CCF800708707CCF8E6
:1027700000204FF400774FF4007100BFCCF8003018
:1027800058BF4FF00077CCF80070CCF80020C0079D
:1027900000BFCCF8003008BF4FF00071CCF800103B
:1027A000CCF800204FF4804000BFCCF80030CCF8CB
:1027B000000401B0BDE8F08F2DE9F04F83B00D4665
:1027C00051B2202901930290C0F2028240F61040DB
:1027D000C4F201004FF080494FF000414FF0007CFF
:1027E0004FF48073C0F80094C0F80014C0F800C023
:1027F00003604FF0807100BF0160C0F800C003604B
:1028000000BF0160C0F800C003604FF4007E00BF4D
:102810000160C0F800E0036000BF0160C0F800C0C4
:10282000036000BF0160C0F800E0036000BF01600A
:10283000C0F800C0036000BF0160C0F800E00360A2
:102840004FF480464FF4004400BF0160C0F80064BC
:10285000C0F80094C0F800449346029ADDE90C8762
:1028600054B2B4F1FF3F4FF40074C8BF4FF000748E
:102870000460540603604FF4007400BF016058BF49
:102880004FF000740460940603604FF4007400BFBE
:10289000016058BF4FF000740460D40603604FF429
:1028A000007400BF016058BF4FF00074046014074B
:1028B00003604FF4007400BF016058BF4FF0007414
:1028C0000460540703604FF4007400BF016058BFF8
:1028D0004FF000740460940703604FF4007400BF6D
:1028E000016058BF4FF000740460D40703604FF4D8
:1028F000007400BF016008BF4FF00074046002EB79
:102900000804A4F101084FFA88F44FF4004A036068
:10291000B4F1FF3F4FF4007400BF0160C0F80064E1
:10292000C0F80094C0F800A4C8BF4FF00074046061
:102930005FEA486403604FF4007400BF016058BF51
:102940004FF0007404605FEA886403604FF4007421
:1029500000BF016058BF4FF0007404605FEAC864B4
:1029600003604FF4007400BF016058BF4FF0007463
:1029700004605FEA087403604FF4007400BF0160F4
:1029800058BF4FF0007404605FEA487403604FF46E
:10299000007400BF016058BF4FF0007404605FEA2C
:1029A000887403604FF4007400BF016058BF4FF09B
:1029B000007404605FEAC87403604FF4007400BFE1
:1029C000016008BF4FF00074046003604FF00048DE
:1029D00000BF0160C0F80064C0F80094C0F8008433
:1029E000C0F800C0036000BF0160C0F800E00360F1
:1029F00000BF0160C0F800E0036000BF0160C0F8E4
:102A000000E0036000BF0160C0F800C0036000BFC9
:102A10000160C0F800E0036000BF0160C0F800C0C2
:102A2000036000BF0160C0F800E0036000BF016008
:102A3000C0F80064C0F80094C0F800A4C0F800C05A
:102A400003606CB200BF0160C0F800C0036000BF4B
:102A50000160C0F800C00360B4F1FF3F4FF40074A0
:102A600000BF0160C8BF4FF0007404606C060360D3
:102A70004FF4007400BF016058BF4FF00074046051
:102A8000AC0603604FF4007400BF016058BF4FF004
:102A900000740460EC0603604FF4007400BF016032
:102AA00058BF4FF0007404602C0703604FF40074AB
:102AB00000BF016058BF4FF000740460EC19013C86
:102AC000A2B204EB52320360D41000BF0160C0F820
:102AD0000064C0F80094C0F800A4C0F800C003600F
:102AE000A20600BF0160C0F800C003604FF400728E
:102AF00000BF016058BF4FF000720260E206036041
:102B00004FF4007200BF016058BF4FF000720260C6
:102B1000220703604FF4007200BF016058BF4FF0FE
:102B200000720260620703604FF4007200BF016030
:102B300058BF4FF000720260A20703604FF40072AA
:102B400000BF016058BF4FF000720260E2070360EF
:102B50004FF4007200BF016008BF4FF000720260C6
:102B6000036000BF0160C0F80064C0F80094C0F8C2
:102B70000084C0F800C0036000BF0160C0F800E03E
:102B8000036000BF0160C0F800C0036000BF0160C7
:102B9000C0F800E0036000BF0160C0F800E003601F
:102BA00000BF0160C0F800E0036000BF0160C0F832
:102BB00000C0036000BF0160C0F800C0036000BF38
:102BC00001600C99C0F80064002918BF002F03D1E0
:102BD00003B0BDE8F08F00BF5A46A2F12000C0B29A
:102BE0008B4601FB00F8002603E000BF01365E457E
:102BF000EED0019908EB06000C5C02984FF000093A
:102C000006EB000A04E000BF09F101094F45EDD0D1
:102C100024FA09F0C007F7D009EB0500C1B25FFA4A
:102C20008AF0012201F028FFEEE700002DE9F04FC5
:102C300093B057B2202FC0F2F185DDF878C0089329
:102C4000BCF1030F43B228BF4FF0030CB3F1FF3FB9
:102C50004FF40073C8BF4FF00073129343064FF454
:102C6000007358BF4FF00073119383064FF4007345
:102C700058BF4FF000731093C3064FF4007358BF52
:102C80004FF000730F9303074FF4007358BF4FF0DA
:102C900000730E9343074FF4007358BF4FF0007357
:102CA0000D9383074FF40073DDF8709058BF4FF019
:102CB00000730C93C3074FF40073484408BF4FF0F0
:102CC000007301380B9343B2B3F1FF3F4FF400732D
:102CD000C8BF4FF000730A9343064FF4007358BF08
:102CE0004FF00073099383064FF4007A58BF4FF0FA
:102CF000007AC3064FF4007858BF4FF000780307FE
:102D00004FF4007458BF4FF0007443074FF4007E37
:102D100058BF4FF0007E83074FF4007358BF4FF049
:102D20000073C00707924FF4007248B208BF4FF01B
:102D30000072B0F1FF3F40F61040C4F201004FF0C6
:102D40008045C0F800544FF000454FF0007B4FF431
:102D50008077C0F80054C0F800B007604FF080756D
:102D600000BF0560C0F800B0076000BF0560C0F894
:102D700000B007604FF4007600BF05600660076092
:102D800000BF0560C0F800B0076000BF05600660C6
:102D9000076000BF0560C0F800B0076000BF0560B5
:102DA000066007604FF4804600BF0560C0F800640D
:102DB0004FF08046C0F800644FF40046C0F800644D
:102DC000129E0660076000BF0560119E06600760E6
:102DD00000BF0560109E0660076000BF05600F9E83
:102DE0000660076000BF05600E9E0660076000BFBA
:102DF00005600D9E0660076000BF05600C9E0660C2
:102E0000076000BF05600B9E066007604FF48046B8
:102E100000BF0560C0F800644FF08046C0F8006451
:102E20004FF40046C0F800640A9E0660076000BFC9
:102E30000560099E0660076000BF0560CDF818A018
:102E4000C0F800A0076000BF0560CDF81480C0F88E
:102E50000080076000BF056004940460076000BF45
:102E60000560CDF80CE0C0F800E0076000BF056029
:102E700002930360076000BF056001920260076073
:102E80004FF480464FF080434FF0004200BF056092
:102E9000C0F80064C0F80034C0F80024C0F800B0E6
:102EA00007604FF4007200BF05600260076000BF5A
:102EB00005600260076000BF05600260076000BF38
:102EC0000560C0F800B0076000BF056002600760E1
:102ED00000BF0560C0F800B0076000BF0560026079
:102EE00007604FF4004200BF0560C0F80064C0F8FE
:102EF0000034C0F80024C0F800B0076000BF0560CF
:102F0000C0F800B007604FF4007E00BF0560C8BF86
:102F10004FF0007EC0F800E007604E064FF40078E6
:102F200000BF056058BF4FF000788C06C0F80080E5
:102F300007604FF4007400BF056058BF4FF0007485
:102F4000CB06046007604FF4007300BF056058BFF4
:102F50004FF000730E07036007604FF4007600BF68
:102F6000056058BF4FF000765FEA417A066007605F
:102F70004FF4007A00BF056058BF4FF0007AC0F8E8
:102F800000A007604FF4804200BF0560C0F8002435
:102F90004FF08042C0F800244FF40042C0F80024F3
:102FA000C0F800B0076000BF0560C0F800B007605F
:102FB00000BF0560C0F800E0076000BF0560C0F812
:102FC0000080076000BF05600460076000BF056007
:102FD0000360076000BF05600660076000BF056012
:102FE000C0F800A0079AB9F1000FA2F120020792E1
:102FF0004FEA9102009207604FF480414FF0804207
:1030000000BF0560C0F80014C0F800244FF0004273
:10301000C0F80024C0F800B007604FF4007200BF91
:1030200005600260076000BF0560C0F800B007607F
:1030300000BF05600260076000BF056002600760B6
:1030400000BF05600260076000BF0560C0F800B007
:10305000076000BF0560C0F800B007604FF480480B
:1030600000BF0560C0F8001400F054816446079961
:10307000BCF1020F18BF0324BCF1010F08BF644666
:10308000CAB2BCF1000F08BF6446089909FB02F2FE
:1030900001EB420ACE4681E0032EC3F3810108BF53
:1030A0002646032908BF214646EA8101C3F30116DB
:1030B000032E08BF264641EA0611C3F38116032EEC
:1030C00008BF264641EA8611C3F30126032E08BF36
:1030D000264641EA0621C3F38126032EC3F30133BA
:1030E00008BF264641EA8621032B08BF234641EA52
:1030F00003334FF080411B0AC0F800144FF4004125
:10310000C0F80014C0F800B00760990600BF056061
:10311000C0F800B007604FF4007100BF056058BFF1
:103120004FF000710160D90607604FF4007100BFD5
:10313000056058BF4FF000710160190707604FF438
:10314000007100BF056058BF4FF000710160590762
:1031500007604FF4007100BF056058BF4FF0007169
:103160000160990707604FF4007100BF056058BF08
:103170004FF000710160D90707604FF4007100BF84
:10318000056008BF4FF0007101600760BEF1010EDD
:1031900000BF0560C0F8008400F0BC803AF8023B34
:1031A0001E9903F003060329BFF476AFBCF1020FAA
:1031B00030D1C3F38101032E4FEA810208BF0226FA
:1031C000032908BF0822B118C3F301121601032A0C
:1031D00008BF20263144C3F38112032A18BF41EAF5
:1031E0008211C3F301221602032A08BF4FF40076AE
:1031F000C3F3812231439602032AC3F301324FEA1B
:10320000023308BF4FF400663143032A08BF4FF46E
:1032100000537CE0BCF1010F30D1C3F38101032ED8
:103220004FEA810208BF0126032908BF0422B11812
:10323000C3F301121601032A08BF10263144C3F359
:103240008112032A18BF41EA8211C3F30122160238
:10325000032A08BF4FF48076C3F3812231439602DC
:10326000032AC3F3013208BF4FF4806631431303CE
:10327000032A08BF4FF4805349E000BF6146BCF108
:10328000000F18BF3146032E18BF31466646C3F300
:103290008102BCF1000F18BF9600032A18BF9600E8
:1032A00031436646C3F30112BCF1000F18BF16018B
:1032B000032A18BF160131436646C3F38112BCF1DD
:1032C000000F18BF9601032A18BF960131436646C6
:1032D000C3F30122BCF1000F18BF1602032A18BF66
:1032E000160231436646C3F38122BCF1000F18BFBA
:1032F0009602032A18BF9602C3F301326346BCF15B
:10330000000F18BF13033143032A18BF13030B43E5
:10331000EFE600BF4FF08041C0F800144FF00041CD
:10332000C0F80014C0F800B0076000BF0560C0F826
:1033300000B0076000BF0560C0F800B007604FF440
:10334000007100BF05600160076000BF0560C0F844
:1033500000B0076000BF05600160076000BF056046
:10336000C0F800B0076000BF0560016007604FF45F
:1033700080414FF0804600BF0560C0F800144FF454
:103380000041C0F80064C0F8001412994FF4804264
:103390000160076000BF056011994FF400440160AF
:1033A000076000BF056010994FF00043016007609F
:1033B00000BF05600F994FF0007E0160076000BFFD
:1033C00005600E994FF4007A0160076000BF056048
:1033D0000D994FF400780160076000BF05600C99FB
:1033E0000160076000BF05600B990160076000BFC6
:1033F0000560C0F80024C0F80064C0F800440A99D1
:103400000160076000BF056009990160076000BFA7
:10341000056006990160076000BF056005990160BD
:10342000076000BF056004990160076000BF056088
:1034300003990160076000BF0560029901600760A1
:1034400000BF056001990160076000BF0560C0F81A
:103450000024C0F80064C0F80034C0F800B0076071
:103460004FF4007100BF05600160076000BF056098
:103470000160076000BF05600160076000BF056074
:10348000C0F800B0076000BF05600160076000BFC2
:103490000560C0F800B0076000BF0560016007600C
:1034A00000BF0560C0F800240099C0F800644B1C00
:1034B000C0F80044C0F800B007603F2900BF0560B5
:1034C00008BF4FF4007EC0F800E00760990600BF17
:1034D000056058BF4FF0007AC0F800A00760D90619
:1034E0004FF4007400BF056058BF4FF000740460D3
:1034F000076019074FF4007600BF056058BF4FF012
:1035000000765907066007604FF4007100BF056040
:1035100058BF4FF00071016007609A0700BF056057
:1035200058BF4FF00078C0F800800760DA074FF40A
:10353000007300BF056008BF4FF0007303600760B1
:103540004FF4804200BF0560C0F800244FF0804275
:10355000C0F800244FF40042C0F80024C0F800B0C6
:10356000076000BF0560C0F800E0076000BF0560AD
:10357000C0F800A0076000BF05600460076000BFDE
:1035800005600660076000BF05600160076000BF5E
:103590000560C0F80080076000BF05600360076039
:1035A0004FF480414FF0804200BF0560C0F8001426
:1035B000C0F800244FF00042C0F80024C0F800B06A
:1035C00007604FF4007200BF05600260076000BF33
:1035D0000560C0F800B0076000BF056002600760CA
:1035E00000BF05600260076000BF05600260076001
:1035F00000BF0560C0F800B0076000BF0560C0F8FC
:1036000000B0076000BF0560C0F80014089BB9F166
:10361000000F00F003810799BCF1020FCAB26146A6
:1036200018BF032109FB02F2BCF1010F08BF61467C
:1036300003EB420B4FF0804E4FF400484FF480757F
:103640004FF080744FF4804ABCF1000F08BF614610
:1036500074E000BF032EC7F3810308BF0E46032B9F
:1036600008BF0B4646EA8303C7F30116032E08BFC3
:103670000E4643EA061307F0C006C02E0E4618BFDA
:10368000BE0943EA86177AB2B2F1FF3F4FF40072E7
:10369000C0F800E4C0F80084C8BF4FF000720260B8
:1036A0007A0605604FF4007200BF046058BF4FF007
:1036B00000720260BA0605604FF4007200BF046039
:1036C00058BF4FF000720260FA0605604FF40072B6
:1036D00000BF046058BF4FF0007202603A070560F7
:1036E0004FF4007200BF046058BF4FF000720260D8
:1036F0007A0705604FF4007200BF046058BF4FF0B6
:1037000000720260BA0705604FF4007200BF0460E7
:1037100058BF4FF000720260FA0705604FF4007264
:1037200000BF046008BF4FF0007202600560B9F18D
:10373000010900BF0460C0F800A46FD03BF8027B11
:103740001E9A07F00306032A84D2BCF1020F1BD194
:10375000C7F38103032E4FEA830208BF0226032B1F
:1037600008BF0822C7F3011332441E01032B08BF10
:103770002026324407F0C00327F03F06C02B08BFC5
:103780006FF07F061CE000BFBCF1010F1AD1C7F338
:103790008102032E4FEA820308BF0126032A08BFD5
:1037A0000423F218C7F301131E01032B08BF1026D0
:1037B000324407F0C00327F03F06C02B08BF402665
:1037C000971960E76246BCF1000F18BF3246032E1E
:1037D00018BF32466646C7F38103BCF1000F18BF1D
:1037E0009E00032B18BF9E0032436646C7F30113A9
:1037F000BCF1000F18BF1E01032B18BF1E0132437E
:1038000007F0C00327F03F066746BCF1000F18BF62
:103810003746C02B18BF3746174334E713B0BDE80F
:10382000F08F00002DE9F04F83B09A461378DBB19A
:10383000DDF83090DDF838800D46064609F10107C5
:10384000541E4FF0000B00BFF0B2DAB229465346C7
:10385000CDE9009BCDF80880FFF7E8F9A3783E4456
:10386000002B04F10104EFD103B0BDE8F08F00009C
:103870002DE9F04F88B040F61041C4F201014FF03D
:1038800080464FF0004C4FF000774FF48073C1F842
:103890000064C1F800C40F600B604FF0807200BF7D
:1038A0000A600F600B604FF4007400BF0A600C6088
:1038B0000B6000BF0A600C600B6000BF0A600F6005
:1038C0000B6000BF0A600F600B6000BF0A600F60F2
:1038D0000B6000BF0A600F600B604FF4804500BFB3
:1038E0000A60C1F80054C1F80064C1F800C40C605B
:1038F0000B6000BF0A600C600B6000BF0A600C60C8
:103900000B6000BF0A600C600B6000BF0A600F60B4
:103910000B6000BF0A600F600B6000BF0A600F60A1
:103920000B6000BF0A600F600B604FF4004E00BFD9
:103930000A60C1F80054C1F80064C1F800E40F60E7
:103940000B6000BF0A600F600B6000BF0A600F6071
:103950000B6000BF0A600C600B6000BF0A600F6064
:103960000B6000BF0A600F600B6000BF0A600F6051
:103970000B6000BF0A600C600B60032800BF0A6088
:10398000C1F800540AD845F26046C0F6000656F861
:1039900020600796552600FB06F804E04FF0007003
:1039A0004FF0000807904FF08040C1F80004C1F8C4
:1039B00000C40F600B6000BF0A600C600B6000BFAA
:1039C0000A600C600B6000BF0A600C600B6000BFF7
:1039D0000A600F600B6000BF0A600C600B6000BFE4
:1039E0000A600F600B6000BF0A600C600B6000BFD4
:1039F0000A60C1F80054C1F80004C1F800E40F6087
:103A00000B6000BF0A600F600B6000BF0A600F60B0
:103A10000B6000BF0A600F600B6000BF0A600F60A0
:103A20000B6000BF0A600F600B6000BF0A600F6090
:103A30000B6000BF0A600F600B6000BF0A60C1F836
:103A40000054C1F80004C1F800E40F600B6000BF2F
:103A50000A600F600B6000BF0A600C600B6000BF63
:103A60000A600F600B6000BF0A600F600B6000BF50
:103A70000A600C600B6000BF0A600C600B6000BF46
:103A80000A600C600B6000BF0A60C1F80054C1F806
:103A90000004C1F800C40F600B6000BF0A600F6033
:103AA0000B6000BF0A600F600B6000BF0A600C6013
:103AB0000B6000BF0A600F600B6000BF0A600C6003
:103AC0000B6000BF0A600F600B6000BF0A600C60F3
:103AD0000B6000BF0A60C1F80054C1F80004C1F8CF
:103AE00000E40F600B6000BF0A600F600B6000BF56
:103AF0000A600F600B6000BF0A600F600B6000BFC0
:103B00000A600F600B6000BF0A600F600B6000BFAF
:103B10000A600F600B6000BF0A600F600B6000BF9F
:103B20000A60C1F80054C1F80004C1F800E40C6058
:103B30000B6000BF0A600F600B6000BF0A600F607F
:103B40000B6000BF0A600C600B6000BF0A600C6075
:103B50000B6000BF0A600C600B6000BF0A600C6065
:103B60000B6000BF0A600C600B6000BF0A60C1F808
:103B70000054C1F80004C1F800C40F600B6000BF1E
:103B80000A600C600B6000BF0A600F600B6000BF32
:103B90000A600C600B6000BF0A600C600B6000BF25
:103BA0000A600C600B6000BF0A600F600B605FEA88
:103BB000486000BF0A600F600B604FF4007000BFE8
:103BC0000A60C1F8005458BF4FF0007006905FEAD9
:103BD00088604FF4007058BF4FF0007005904FF4AC
:103BE00000705FEAC86658BF4FF0007004904FF451
:103BF00000705FEA087658BF4FF0007003904FF4F2
:103C000000705FEA487658BF4FF0007002905FEA9C
:103C100088774FF4007058BF4FF0007001905FEA52
:103C2000C87708BF4FF000740094DDF818B0DDE9E4
:103C30000454DDE90296DDE900E74FF4C85C00BFFB
:103C40004FF08040C1F800044FF40040C1F8000478
:103C500007984FF4804808600B6000BF0A60C1F805
:103C600000B00B6000BF0A600C600B6000BF0A6010
:103C70000D600B6000BF0A600E600B6000BF0A6041
:103C8000C1F800900B6000BF0A600F600B6000BFBE
:103C90000A60C1F800E00B6000BF0A60C1F8008450
:103CA0004FF080484FF480724FF40043C1F8008415
:103CB0004FF0807AC1F8003408600A6000BFC1F894
:103CC00000A0C1F800B00A6000BFC1F800A00C60FD
:103CD0000A6000BFC1F800A00D600A6000BFC1F813
:103CE00000A00E600A6000BFC1F800A0C1F80090FB
:103CF0000A6000BFC1F800A00F600A6000BFC1F8F1
:103D000000A0C1F800E00A604FF080724FF4804AD2
:103D100000BF0A60C1F800A4C1F80084C1F80034F3
:103D20004FF4807308600B6000BF0A60C1F800B0F8
:103D30000B6000BF0A600C600B6000BF0A600D6082
:103D40000B6000BF0A600E600B6000BF0A60C1F824
:103D500000900B6000BF0A600F600B6000BF0A603C
:103D6000C1F800E00B604FF480484FF4004A00BFF8
:103D70000A60C1F800844FF08048C1F80084C1F89F
:103D800000A408600B6000BF0A60C1F800B00B60BF
:103D900000BF0A600C600B6000BF0A600D600B6022
:103DA00000BF0A600E600B6000BF0A60C1F800909F
:103DB0000B6000BF0A600F600B6000BF0A60C1F8B3
:103DC00000E00B60BCF1040C4FF4804000BF0A60BF
:103DD000C1F800047FF434AF08B0BDE8F08F0000F4
:103DE0002DE9F04F81B040F610450090C4F2010576
:103DF0004FF48030C5F800040A20FCF797FD01203D
:103E0000C5F800043220FCF791FD4FF0804A4FF0D6
:103E1000004B4FF000744FF48076C5F800A4C5F84D
:103E200000B42C602E604FF0807700BF2F602C60B4
:103E30002E604FF4007900BF2F60C5F800902E600F
:103E400000BF2F60C5F800902E6000BF2F602C606F
:103E50002E6000BF2F602C602E6000BF2F602C6092
:103E60002E6000BF2F60C5F800902E604FF4804890
:103E700000BF2F60C5F80084C5F800A4C5F800B4E1
:103E8000C5F800902E6000BF2F60C5F800902E602E
:103E900000BF2F602C602E6000BF2F60C5F800901F
:103EA0002E6000BF2F602C602E6000BF2F60C5F811
:103EB00000902E6000BF2F60C5F800902E6000BFFC
:103EC0002F60C5F800902E604FF4004000BF2F60B7
:103ED000C5F80084C5F800A4C5F80004C5F8009032
:103EE0002E6000BF2F602C602E6000BF2F602C6002
:103EF0002E6000BF2F60C5F800902E6000BF2F60BD
:103F0000C5F800902E6000BF2F60C5F800902E60AD
:103F100000BF2F60C5F800902E6000BF2F60C5F86D
:103F200000902E6000BF2F60C5F80084C5F800A483
:103F3000C5F800B4C5F800902E6000BF2F60C5F82A
:103F400000902E6000BF2F60C5F800902E6000BF6B
:103F50002F602C602E6000BF2F602C602E6000BF91
:103F60002F602C602E6000BF2F602C602E6000BF81
:103F70002F602C602E6000BF2F60C5F80084C5F84C
:103F800000A4C5F800042C602E6000BF2F602C60D8
:103F90002E6000BF2F602C602E6000BF2F602C6051
:103FA0002E6000BF2F602C602E6000BF2F602C6041
:103FB0002E6000BF2F602C602E6000BF2F602C6031
:103FC0002E600A2000BF2F60C5F80084FCF7AEFC0D
:103FD000C5F800A4C5F800B4C5F800902E6000BF75
:103FE0002F60C5F800902E6000BF2F60C5F80090CC
:103FF0002E6000BF2F602C602E6000BF2F602C60F1
:104000002E6000BF2F602C602E6000BF2F60C5F8AF
:1040100000902E6000BF2F60C5F800902E60142025
:1040200000BF2F60C5F80084FCF780FCC5F800A431
:10403000C5F800B4C5F800902E6000BF2F60C5F829
:1040400000902E6000BF2F60C5F800902E6000BF6A
:104050002F602C602E6000BF2F602C602E6000BF90
:104060002F602C602E6000BF2F602C602E6000BF80
:104070002F60C5F800902E6000BF2F60C5F8008447
:10408000C5F800A4C5F800B42C602E6000BF2F60F6
:104090002C602E6000BF2F60C5F800902E6000BF1E
:1040A0002F60C5F800902E6000BF2F602C602E603E
:1040B00000BF2F602C602E6000BF2F602C602E6030
:1040C00000BF2F602C602E6000BF2F60C5F80084F9
:1040D000C5F800A4C5F800B4C5F800902E6000BF74
:1040E0002F602C602E6000BF2F602C602E6000BF00
:1040F0002F60C5F800902E6000BF2F602C602E60EE
:1041000000BF2F60C5F800902E6000BF2F602C60AC
:104110002E6000BF2F602C602E6000BF2F60C5F89E
:104120000084C5F800A4C5F800B4C5F800902E605E
:1041300000BF2F602C602E6000BF2F60C5F800907C
:104140002E6000BF2F602C602E6000BF2F60C5F86E
:1041500000902E6000BF2F60C5F800902E6000BF59
:104160002F60C5F800902E6000BF2F602C602E607D
:10417000322000BF2F60C5F80084FCF7D7FBC5F8DC
:1041800000A4C5F800B42C602E6000BF2F602C6026
:104190002E6000BF2F60C5F800902E6000BF2F601A
:1041A0002C602E6000BF2F602C602E6000BF2F603F
:1041B0002C602E6000BF2F602C602E604FF40040FA
:1041C00000BF2F602C602E6000BF2F60C5F80084F8
:1041D000C5F800A4C5F800042C602E6000BF2F6055
:1041E0002C602E6000BF2F602C602E6000BF2F60FF
:1041F0002C602E6000BF2F60C5F800902E6000BFBD
:104200002F602C602E6000BF2F60C5F800902E60DC
:1042100000BF2F60C5F800902E6000BF2F60C5F86A
:104220000084C5F800A4C5F800B4C5F800902E605D
:1042300000BF2F602C602E6000BF2F602C602E60AE
:1042400000BF2F602C602E6000BF2F602C602E609E
:1042500000BF2F602C602E6000BF2F602C602E608E
:1042600000BF2F60C5F800902E6000BF2F60C5F81A
:104270000084C5F800A4C5F800042C602E6000BFBF
:104280002F602C602E6000BF2F602C602E6000BF5E
:104290002F602C602E6000BF2F602C602E6000BF4E
:1042A0002F60C5F800902E6000BF2F602C602E603C
:1042B00000BF2F60C5F800902E6000BF2F60C5F8CA
:1042C0000084C5F800A4C5F800042C602E6000BF6F
:1042D0002F602C602E6000BF2F602C602E6000BF0E
:1042E0002F602C602E6000BF2F602C602E6000BFFE
:1042F0002F60C5F800902E6000BF2F602C602E60EC
:1043000000BF2F60C5F800902E6000BF2F60C5F879
:104310000084C5F800A4C5F800B4C5F800902E606C
:1043200000BF2F60C5F800902E6000BF2F60C5F859
:1043300000902E6000BF2F60C5F800902E6000BF77
:104340002F602C602E6000BF2F602C602E6000BF9D
:104350002F602C602E6000BF2F602C602E6000BF8D
:104360002F60C5F80084C5F800A4C5F800042C60CF
:104370002E6000BF2F602C602E6000BF2F602C606D
:104380002E6000BF2F60C5F800902E6000BF2F6028
:104390002C602E6000BF2F602C602E6000BF2F604D
:1043A0002C602E6000BF00992F60002900F0398238
:1043B000C5F800902E6000BF2F60C5F80084C5F8D6
:1043C00000A4C5F800B42C602E6000BF2F602C60E4
:1043D0002E6000BF2F60C5F800902E6000BF2F60D8
:1043E000C5F800902E6000BF2F602C602E6000BFCB
:1043F0002F602C602E6000BF2F602C602E6000BFED
:104400002F60C5F800902E6000BF2F60C5F80084B3
:10441000C5F800A4C5F800B42C602E6000BF2F6062
:10442000C5F800902E6000BF2F602C602E6000BF8A
:104430002F602C602E6000BF2F602C602E6000BFAC
:104440002F602C602E6000BF2F602C602E6000BF9C
:104450002F602C602E6000BF2F60C5F80084C5F867
:1044600000A4C5F800B42C602E6000BF2F602C6043
:104470002E6000BF2F60C5F800902E6000BF2F6037
:104480002C602E6000BF2F602C602E6000BF2F605C
:104490002C602E6000BF2F602C602E6000BF2F604C
:1044A0002C602E6000BF2F60C5F80084C5F800A402
:1044B000C5F800042C602E6000BF2F602C602E60B9
:1044C00000BF2F602C602E6000BF2F602C602E601C
:1044D00000BF2F602C602E6000BF2F602C602E600C
:1044E00000BF2F602C602E6000BF2F602C602E60FC
:1044F00000BF2F60C5F80084C5F800A4C5F800040B
:104500002C602E6000BF2F602C602E6000BF2F60DB
:104510002C602E6000BF2F60C5F800902E6000BF99
:104520002F602C602E6000BF2F60C5F800902E60B9
:1045300000BF2F60C5F800902E6000BF2F60C5F847
:1045400000902E6000BF2F60C5F80084C5F800A45D
:10455000C5F800042C602E6000BF2F602C602E6018
:1045600000BF2F602C602E6000BF2F60C5F8009048
:104570002E6000BF2F60C5F800902E6000BF2F6036
:10458000C5F800902E6000BF2F602C602E6000BF29
:104590002F60C5F800902E6000BF2F60C5F8008422
:1045A000C5F800A4C5F800042C602E6000BF2F6081
:1045B0002C602E6000BF2F60C5F800902E6000BFF9
:1045C0002F60C5F800902E6000BF2F60C5F80090E6
:1045D0002E6000BF2F60C5F800902E6000BF2F60D6
:1045E000C5F800902E6000BF2F60C5F800902E60C7
:1045F00000BF2F60C5F80084C5F800A4C5F800B45A
:104600002C602E6000BF2F602C602E6000BF2F60DA
:10461000C5F800902E6000BF2F60C5F800902E6096
:1046200000BF2F602C602E6000BF2F602C602E60BA
:1046300000BF2F60C5F800902E6000BF2F602C6077
:104640002E6000BF2F60C5F80084C5F800A4C5F82F
:1046500000042C602E6000BF2F602C602E6000BF15
:104660002F602C602E6000BF2F602C602E6000BF7A
:104670002F602C602E6000BF2F602C602E6000BF6A
:104680002F602C602E6000BF2F602C602E6000BF5A
:104690002F60C5F80084C5F800A4C5F800042C609C
:1046A0002E6000BF2F602C602E6000BF2F602C603A
:1046B0002E6000BF2F602C602E6000BF2F602C602A
:1046C0002E6000BF2F602C602E6000BF2F602C601A
:1046D0002E6000BF2F60C5F800902E6000BF2F60D5
:1046E000C5F80084C5F800A4C5F800042C602E604D
:1046F00000BF2F602C602E6000BF2F602C602E60EA
:1047000000BF2F602C602E6000BF2F602C602E60D9
:1047100000BF2F602C602E6000BF2F60C5F8009096
:104720002E6000BF2F602C602E6000BF2F60C5F888
:104730000084C5F800A4C5F800B42C602E6000BF4A
:104740002F60C5F800902E6000BF2F602C602E6097
:1047500000BF2F60C5F800902E6000BF2F602C6056
:104760002E6000BF2F602C602E6000BF2F602C6079
:104770002E6000BF2F60C5F800902E6000BF2F6034
:10478000C5F80084C5F800A4C5F80004C5F8009079
:104790002E6000BF2F60C5F800902E6000BF2F6014
:1047A000C5F800902E6000BF2F60C5F800902E6005
:1047B00000BF2F60C5F800902E6000BF2F602C60F6
:1047C0002E6000BF2F60C5F800902E6000BF2F60E4
:1047D000C5F800902E6000BF2F60C5F80084C5F8B2
:1047E00000A4C5F800B42C602E6000BF2F602C60C0
:1047F0002E6000BF2F60C5F800902E6000BF2F60B4
:10480000C5F800902E6000BF2F602C602E6000BFA6
:104810002F602C602E6000BF2F602C602E6000BFC8
:104820002F602C602E6000BF2F60C5F80084C5F893
:1048300000A4C5F800B4C5F800902E6000BF2F603A
:10484000C5F800902E6000BF2F602C602E6000BF66
:104850002F602C602E6000BF2F60C5F800902E6086
:1048600000BF2F602C602E6000BF2F60C5F8009045
:104870002E6000BF2F602C602E6000BF2F60C5F837
:104880000084C5F800A4C5F800042C602E6000BFA9
:104890002F602C602E6000BF2F602C602E6000BF48
:1048A0002F602C602E6000BF2F602C602E6000BF38
:1048B0002F602C602E6000BF2F602C602E6000BF28
:1048C0002F602C602E6000BF2F60C5F80084C5F8F3
:1048D00000A4C5F80004C5F800902E6000BF2F604A
:1048E0002C602E6000BF2F602C602E6000BF2F60F8
:1048F000C5F800902E6000BF2F60C5F800902E60B4
:1049000000BF2F60C5F800902E6000BF2F60C5F873
:1049100000902E6000BF2F60C5F800902E6000BF91
:104920002F60C5F80084C5F800A4C5F800042C6009
:104930002E6000BF2F602C602E6000BF2F60C5F876
:1049400000902E6000BF2F602C602E6000BF2F6093
:104950002C602E6000BF2F60C5F800902E6000BF55
:104960002F602C602E6000BF2F60C5F800902E6075
:1049700000BF2F60C5F80084C5F800A4C5F800B4D6
:10498000C5F800902E6000BF2F602C602E6000BF25
:104990002F60C5F800902E6000BF2F60C5F8009012
:1049A0002E6000BF2F60C5F800902E6000BF2F6002
:1049B000C5F800902E6000BF2F602C602E6000BFF5
:1049C0002F602C602E6000BF2F60C5F80084C5F8F2
:1049D00000A4C5F800042C602E6000BF2F602C607E
:1049E0002E6000BF2F602C602E6000BF2F602C60F7
:1049F0002E6000BF2F602C602E6000BF2F602C60E7
:104A00002E6000BF2F602C602E6000BF2F602C60D6
:104A10002E6000BF2F60C5F80084C5F800A4C5F85B
:104A200000B4C5F800902E6000BF2F602C602E608F
:104A300000BF2F60C5F800902E6000BF2F602C6073
:104A40002E6000BF2F60C5F800902E6000BF2F6061
:104A5000C5F800902E6000BF2F60C5F800902E6052
:104A600000BF2F60C5F800902E6000BF2F60C5F812
:104A7000008401B0BDE8F08F9F2898BF9F2901D91D
:104A8000704700BF2DE9F04F81B0074601F00700E5
:104A90000123CE0803FA00F040F26C53002AC2F260
:104AA000000306EB860203EB42120096D35D0CBFB7
:104AB00023EA00001843D05540F61042C4F2010228
:104AC0004FF08040C2F800044FF00040C2F80004EC
:104AD0004FF000704FF4807C1060C2F800C04FF0BF
:104AE00080734FF4007E00BF1360C2F800E0C2F88C
:104AF00000C000BF1360C2F800E0C2F800C000BFF1
:104B00001360C2F800E0C2F800C000BF136010607C
:104B1000C2F800C000BF1360C2F800E0C2F800C0D5
:104B200000BF13601060C2F800C048B200BF13603D
:104B3000C2F800E0C2F800C0B0F1FF3F4FF40078C7
:104B400000BF1360C8BF4FF0007848064FF40075EF
:104B500058BF4FF0007588064FF4007458BF4FF0EF
:104B60000074C8064FF4007058BF4FF0007009077A
:104B70004FF48041C2F800144FF080494FF40041D7
:104B8000C2F80094C2F800144FF000711160C2F82E
:104B900000C000BF13601160C2F800C000BF136006
:104BA0001160C2F800C000BF1360C2F80080C2F8F4
:104BB00000C000BF13601560C2F800C000BF1360E2
:104BC0001460C2F800C000BF13601060C2F800C0DB
:104BD0004FF400764FF4804B4FF4004A00BF13604F
:104BE00058BF4FF000761660C2F800C000BF1360D7
:104BF000C2F800B4C2F80094C2F800A41160C2F870
:104C000000C000BF13601160C2F800C000BF136095
:104C10001160C2F800C000BF1360C2F80080C2F883
:104C200000C000BF13601560C2F800C000BF136071
:104C30001460C2F800C000BF13601060C2F800C06A
:104C400000BF13601660C2F800C04FF0004000BF04
:104C50001360C2F800B4C2F80094C2F800044FF028
:104C600000701060C2F800C000BF13601060C2F88E
:104C700000C000BF13601060C2F800C000BF136026
:104C8000C2F800E0C2F800C000BF13601060C2F8B4
:104C900000C000BF1360C2F800E0C2F800C000BF4F
:104CA00013601060C2F800C04FF480414FF08044A0
:104CB00000BF1360C2F800E0C2F800C078B200BFC5
:104CC0001360C2F80014C2F80044B0F1FF3F4FF483
:104CD0000074C2F800A4C8BF4FF000741460C2F89A
:104CE00000C078064FF4007500BF136058BF4FF046
:104CF00000751560C2F800C0B8064FF4007800BF18
:104D0000136058BF4FF00078C2F80080C2F800C0AE
:104D1000F8064FF4007A00BF136058BF4FF0007AD6
:104D2000C2F800A0C2F800C038074FF4007900BFF5
:104D3000136058BF4FF000797807C2F80090C2F8AE
:104D400000C04FF4007000BF136058BF4FF00070F8
:104D50001060C2F800C0BE074FF4007B00BF1360B4
:104D600058BF4FF0007BFE07C2F800B0C2F800C089
:104D70004FF4007600BF136008BF4FF00076166056
:104D8000C2F800C000BF1360C2F800144FF08041A9
:104D9000C2F800144FF40041C2F800141460C2F8C5
:104DA00000C000BF13601560C2F800C000BF1360F0
:104DB000C2F80080C2F800C000BF1360C2F800A0B3
:104DC000C2F800C000BF1360C2F80090C2F800C073
:104DD00000BF13601060C2F800C000BF1360C2F8CB
:104DE00000B0C2F800C000BF13601660C2F800C077
:104DF0004FF480454FF080464FF0004000BF1360F5
:104E0000C2F80054C2F80064C2F800044FF0007009
:104E10001060C2F800C000BF1360C2F800E0C2F822
:104E200000C000BF13601060C2F800C000BF136074
:104E3000C2F800E0C2F800C000BF1360C2F800E092
:104E4000C2F800C000BF1360C2F800E0C2F800C0A2
:104E500000BF13601060C2F800C000BF1360106094
:104E6000009840F26C5400EB8000C2F20004C2F8DB
:104E700000C004EB401000BF1360C2F80054C057DC
:104E80004FF40044C2F80064C2F800444FF40074C8
:104E9000B0F1FF3FC8BF4FF0007414604406C2F881
:104EA00000C04FF4007400BF136058BF4FF000748F
:104EB00014608406C2F800C04FF4007400BF136091
:104EC00058BF4FF000741460C406C2F800C04FF41D
:104ED000007400BF136058BF4FF0007414600407E3
:104EE000C2F800C04FF4007400BF136058BF4FF009
:104EF000007414604407C2F800C04FF4007400BF8F
:104F0000136058BF4FF0007414608407C2F800C0EB
:104F10004FF4007400BF136058BF4FF0007414606A
:104F2000C2F800C04FF48041C00700BF136008BF43
:104F30004FF0007EC2F800E0C2F800C000BF13606E
:104F4000C2F8001401B0BDE8F04F704794B0FBF711
:104F500015FE00240120CDE90F44CDE90D440E904B
:104F6000102002250F900AA8CDE90B440A95CDE93F
:104F700011541394FBF78CFF20B1EFF3108072B63D
:104F8000FEE700BF0F20CDE90405A02006904FF4F6
:104F90008060CDE9070404A80021FBF797FE28B143
:104FA000EFF3108072B600BFFEE700BF41F2180AAF
:104FB000C4F2020A5AF8040C40F6004540F0020020
:104FC0004AF8040C5AF8040C002100F002000A9080
:104FD0000A983A200022C4F20105FBF73BFE3A2072
:104FE000FBF726FEDAF8000005F5806640F01000B9
:104FF000CAF80000DAF800004FF6014100F0100096
:105000000A900A98DAF80000002240F00400CAF87A
:105010000000DAF8000000F004000A900A98DAF8BC
:10502000000040F00800CAF80000DAF8000000F0C4
:1050300008000A900A98DAF8000040F02000CAF848
:105040000000DAF8000000F020000A900A983046CC
:10505000FBF77AFDA5F58069484649F62001002254
:10506000FBF772FD284642F230310022FBF76CFD5F
:1050700005F50064204604210022FBF765FD4FF48E
:1050800000500A9011200AAF0B904FF001084FF02A
:10509000020B30463946CDF83080CDF834B0FBF7FE
:1050A00059FC4CF20100CDE90A0830463946CDE9F9
:1050B0000C8BFBF74FFC49F62000CDE90A080020D5
:1050C000CDE90C0B48463946CDF80C90FBF742FC75
:1050D0004FF40C50CDE90A0828463946CDE90C8B2F
:1050E000FBF738FC4FF4E050CDE90A080020CDE989
:1050F0000C0B30463946FBF72DFC04200A90112694
:105100000BA880E8400920463946FBF723FC08201D
:10511000CDE90A0B03200D9028463946FBF71AFC0F
:1051200030200AA981E8410928463946FBF712FCDC
:105130000420C4F201000168002741F0E06141F061
:105140000101016000200D90CDE90B0005902020A9
:10515000049040F2DC40C2F200004FF080413F2357
:10516000632280E88600C0E903378761FCF7F2F824
:1051700020B1EFF3108072B6FEE700BF4FF480500D
:105180000A9040F2DC40039FC2F200000AA9FCF73B
:105190008FF928B1EFF3108072B600BFFEE700BFB1
:1051A00040F2DC40C2F2000004A9FCF787F828B105
:1051B000EFF3108072B600BFFEE700BF5AF8040C90
:1051C00040F6000440F002004AF8040C5AF8040CBF
:1051D000002100F002000A900A983A200022C4F24E
:1051E0000004FBF737FD3A20FBF722FD02200B906D
:1051F00004200A9040F2780004F5D841C2F2000081
:105200000160FBF7D3F828B1EFF3108072B600BF4E
:10521000FEE700BF40F27805C2F200050AA9284661
:1052200000220026FBF78CF820B1EFF3108072B655
:10523000FEE700BF2020049040F22450C2F200009C
:1052400040F2E7310D96CDE90B660596C0E90046C0
:10525000C0E9026106618661FCF77CF820B1EFF3DA
:10526000108072B6FEE700BF4FF480500A9040F203
:105270002450C2F200000AA9FCF71AF920B1EFF39A
:10528000108072B6FEE700BF40F22450C2F2000068
:1052900004A9FCF713F828B1EFF3108072B600BF31
:1052A000FEE700BF20200A9004F500622846002196
:1052B00040F8142F092240F2E7330B91C0E9012195
:1052C000C3608161FCF746F820B1EFF3108072B63D
:1052D000FEE700BF05F114040AA92046FBF7EEFF24
:1052E00020B1EFF3108072B6FEE700BF2046FCF756
:1052F0009FF840F20C024FF0000AC2F2000228466A
:1053000000210223CDF800A04FF00209FBF7B4F80A
:105310000020FCF79FF93846202101224FF00108B8
:10532000FBF712FC4FF4FA70FBF700FB0020FEF7CE
:1053300057FDFCF703FA45F27044C0F60004072657
:1053400005270020002141222346CDE90076FDF704
:1053500033FA0A20002142222346CDE90076FDF7E8
:105360002BFA1420002130222346CDE90076FDF7E8
:1053700023FA1E20002132222346CDE90076FDF7D4
:105380001BFA0120FEF72CFD0020FEF771FA45F212
:105390005062A025C0F6000200200021A023009545
:1053A000FCF732FD0020FEF763FA40F2D805C2F2A6
:1053B0000005204629466022FCF782FC4FF0030BD3
:1053C0001BA20A2038212B46CDE90076CDF808B083
:1053D000FEF728FA46F6F074C0F600040A204021D1
:1053E00022462B460097CDF808A00196FEF71AFA40
:1053F0000A20482122462B46CDE90076CDF80880C8
:10540000FEF710FA0A20502122462B46CDE90076FD
:10541000CDF80890FEF706FA0A20582122462B46BE
:10542000CDE90076CDF808B0FEF7FCF9FEE700BF45
:10543000506574726F7061726761730000000000E4
:10544000000000000102030406070809010202032C
:105450000405060708090A0B0C0D0E0F10100000BA
:105460000000000200000002000200000002000034
:10547000000000000000005F0000000700070014AB
:105480007F147F14242A7F2A12231308646236496A
:105490005522500005030000001C2241000041225B
:1054A0001C0014083E081408083E0808005030008C
:1054B00000080808080800606000002010080402C6
:1054C0003E5149453E00427F4000426151494621DC
:1054D00041454B311814127F1027454545393C4A48
:1054E0004949300171090503364949493606494998
:1054F000291E0036360000005636000008142241EE
:105500000014141414140041221408020151090655
:10551000324979413E7E1111117E7F494949363E1B
:10552000414141227F4141221C7F494949417F0934
:105530000909013E4149497A7F0808087F00417FF7
:105540004100304040403F7F081422417F404040AE
:10555000407F020C027F7F0608307F3E4141413E82
:105560007F090909063E4151215E7F0919294646F6
:105570004949493101017F01013F4040403F0F301F
:1055800040300F7F2018207F6314081463070870D1
:1055900008076151494543007F414100020408105A
:1055A000200041417F00040201020440404040408D
:1055B000000102040020545478407F4844443838A5
:1055C00044444420384444487F3854545418087E96
:1055D00009010218A4A4A47C7F0804047800447D77
:1055E0004000204040401F7F1028440000417F4081
:1055F000007C041804787C08040478384444443857
:105600007C14141408081414187C7C08040408483A
:1056100054545420043F4440203C4040207C1C20F3
:1056200040201C3C4030403C44281028440C505042
:10563000503C4464544C44000836410000007F0054
:1056400000004136080008082A1C087F4141417FBC
:10565000000000000000000000000000000000004A
:10566000000000000000000000000000000000003A
:10567000000000000000000000000000000000002A
:10568000000000000000000000000000000000001A
:10569000000000000000000000000000000000000A
:1056A00000000000000000000000000000000000FA
:1056B00000000508151515090A0600000000000085
:1056C00000000000000000000000000000000000DA
:1056D00000000000000000000000000000000000CA
:1056E00000000000000000000000000000000000BA
:1056F00000000000000000000000000000145455ED
:10570000555596AA695000000000000000000000F6
:105710000001010100000000000000000000000086
:105720000000000000000000000000000000000079
:105730000000000000000000000000000000000069
:1057400000000000000000061515151515190A00C7
:105750000051906464696A69A04000000000000084
:105760000000000000000000000000000000000039
:105770000000000000000000000000000000000029
:105780000000000000000000000000000000000019
:1057900000000000000000000000000000050005FF
:1057A000414555900000000000000000006455597C
:1057B0005A5A5A9AA400000000000000000000009D
:1057C00000000000000000000000000000000000D9
:1057D00000000000000000000000000000000000C9
:1057E00000000000000000414054556569904000F1
:1057F00001544050556950000000000000000000B6
:105800000000000000000000000000000000000098
:105810000000000000000000000000000000000088
:105820000000000000000000000000000000000078
:1058300000000000000000000000010515550505EE
:1058400055400000000000000000000001040001BD
:1058500041459440000000000000000000000000EE
:105860000000000000000000000000000000000038
:105870000000000000000000000000000000000028
:105880000000000000000151001415644000156480
:1058900054151565550000000000000000000000D0
:1058A00000000000000000000000000000000000F8
:1058B00000000000000000000000000000000000E8
:1058C00000000000000000000000000000000000D8
:1058D00000000000000000000000400000005055E3
:1058E0005400000000000000000005145405055697
:1058F0005400000000000000000000000000000054
:105900000000000000000000000000000000000097
:105910000000000000000000000000000000000087
:105920000000000000505450505555000000540035
:105930000040505500000000000000000000000082
:105940000000000000000000000000000000000057
:105950000000000000000000000000000000000047
:105960000000000000000000000000000000000037
:1059700000000000000000000000000501010155CA
:1059800041000000000000000000550000145555C3
:105990000000000000000000000000000000000007
:1059A00000000000000000000000000000000000F7
:1059B00000000000000000000000000000000000E7
:1059C0000000000000550100015555000000005581
:1059D0001505155500000000000000000000000043
:1059E00000000000000000000000000000000000B7
:1059F00000000000000000000000000000000000A7
:105A00000000000000000000000000000000000096
:105A10000000000000000000000000555656AAAA31
:105A2000550000000000000000005515010555005C
:105A30000000000000000000000000000000000066
:105A40000000000000000000000000000000000056
:105A50000000000000000000000000000000000046
:105A60000000000000005556555A55000000005532
:105A70005A566A55000000000000000000000000B7
:105A80000000000000000000000000000000000016
:105A90000000000000000000000000000000000006
:105AA00000000000000000000000000000000000F6
:105AB00000000000000000000000000096AAAAAA52
:105AC00055000000000000000000555656AA400096
:105AD00000000000000000000000000000000000C6
